{
  "contractName": "Splitwise",
  "abi": [
    {
      "constant": true,
      "inputs": [
        {
          "internalType": "address",
          "name": "",
          "type": "address"
        },
        {
          "internalType": "address",
          "name": "",
          "type": "address"
        }
      ],
      "name": "debts",
      "outputs": [
        {
          "internalType": "int32",
          "name": "",
          "type": "int32"
        }
      ],
      "payable": false,
      "stateMutability": "view",
      "type": "function"
    },
    {
      "constant": true,
      "inputs": [
        {
          "internalType": "uint256",
          "name": "",
          "type": "uint256"
        }
      ],
      "name": "users",
      "outputs": [
        {
          "internalType": "address",
          "name": "",
          "type": "address"
        }
      ],
      "payable": false,
      "stateMutability": "view",
      "type": "function"
    },
    {
      "constant": true,
      "inputs": [
        {
          "internalType": "address",
          "name": "debtor",
          "type": "address"
        },
        {
          "internalType": "address",
          "name": "creditor",
          "type": "address"
        }
      ],
      "name": "lookup",
      "outputs": [
        {
          "internalType": "int32",
          "name": "ret",
          "type": "int32"
        }
      ],
      "payable": false,
      "stateMutability": "view",
      "type": "function"
    },
    {
      "constant": false,
      "inputs": [
        {
          "internalType": "address",
          "name": "creditor",
          "type": "address"
        },
        {
          "internalType": "int32",
          "name": "amount",
          "type": "int32"
        }
      ],
      "name": "add_IOU",
      "outputs": [],
      "payable": false,
      "stateMutability": "nonpayable",
      "type": "function"
    },
    {
      "constant": false,
      "inputs": [
        {
          "internalType": "address",
          "name": "debtor",
          "type": "address"
        },
        {
          "internalType": "address",
          "name": "creditor",
          "type": "address"
        },
        {
          "internalType": "int32",
          "name": "amount",
          "type": "int32"
        }
      ],
      "name": "addDebt",
      "outputs": [],
      "payable": false,
      "stateMutability": "nonpayable",
      "type": "function"
    },
    {
      "constant": true,
      "inputs": [],
      "name": "getUsers",
      "outputs": [
        {
          "internalType": "address[]",
          "name": "ret",
          "type": "address[]"
        }
      ],
      "payable": false,
      "stateMutability": "view",
      "type": "function"
    }
  ],
  "bytecode": "0x608060405234801561001057600080fd5b50610416806100206000396000f3fe608060405234801561001057600080fd5b50600436106100615760003560e01c8062ce8e3e14610066578063365b98b2146100be5780634ac1c33d146100f7578063713584a61461013e578063ada187c41461016c578063fe95a2681461019d575b600080fd5b61006e6101d6565b60408051602080825283518183015283519192839290830191858101910280838360005b838110156100aa578181015183820152602001610092565b505050509050019250505060405180910390f35b6100db600480360360208110156100d457600080fd5b503561026f565b604080516001600160a01b039092168252519081900360200190f35b6101256004803603604081101561010d57600080fd5b506001600160a01b0381358116916020013516610296565b60408051600392830b90920b8252519081900360200190f35b6101256004803603604081101561015457600080fd5b506001600160a01b03813581169160200135166102b3565b61019b6004803603604081101561018257600080fd5b506001600160a01b03813516906020013560030b6102df565b005b61019b600480360360608110156101b357600080fd5b506001600160a01b0381358116916020810135909116906040013560030b6102ee565b6001546040805182815260208084028201019091526060918015610204578160200160208202803883390190505b50905060005b60015481101561026b576001818154811061022157fe5b9060005260206000200160009054906101000a90046001600160a01b031682828151811061024b57fe5b6001600160a01b039092166020928302919091019091015260010161020a565b5090565b6001818154811061027c57fe5b6000918252602090912001546001600160a01b0316905081565b600060208181529281526040808220909352908152205460030b81565b6001600160a01b0391821660009081526020818152604080832093909416825291909152205460030b90565b6102ea3383836102ee565b5050565b6001600160a01b038084166000908152602081815260408083209386168352929052208054600381810b8401900b63ffffffff1663ffffffff1990911617905561033782610345565b61034083610345565b505050565b60005b60015481101561039257816001600160a01b03166001828154811061036957fe5b6000918252602090912001546001600160a01b0316141561038a57506103de565b600101610348565b506001805480820182556000919091527fb10e2d527612073b26eecdfd717e6a320cf44b4afac2b0732d9fcbe2b7fa0cf60180546001600160a01b0319166001600160a01b0383161790555b5056fea265627a7a72315820d0e3b3408ee6b8ba212fd36e4d6f1a26c133f60a4ff8400ce5e4808a76dddbb764736f6c63430005100032",
  "source": "// Please paste your contract's solidity code here\r\n// Note that writing a contract here WILL NOT deploy it and allow you to access it from your client\r\n// You should write and develop your contract in Remix and then, before submitting, copy and paste it here\r\n\r\n\r\npragma solidity ^0.5.0;\r\n\r\ncontract Splitwise{\r\n      mapping(address => mapping (address => int32)) public debts;\r\n      address[] public users;\r\n      \r\n      function lookup(address debtor, address creditor) public view returns (int32 ret){\r\n          ret = debts[debtor][creditor];\r\n      }\r\n      function add_IOU(address creditor, int32 amount) public{\r\n          addDebt(msg.sender, creditor, amount);\r\n      }\r\n      function addDebt(address debtor, address creditor , int32 amount) public{\r\n          debts[debtor][creditor] += amount;\r\n          addToUsers(creditor);\r\n          addToUsers(debtor);\r\n      }\r\n      function addToUsers(address add) private{\r\n          for (uint i = 0; i < users.length; i++){\r\n            if (users[i] == add)\r\n                return;\r\n            }\r\n        users.push(add);\r\n      }\r\n    //   function getDepts(address from) public view returns (mapping (address => uint256) memory) {\r\n    //      mapping(address => uint32) memory ret;\r\n    //      return ret;\r\n    //   }\r\n    \r\n    function getUsers() public view returns (address[] memory ret){\r\n        ret = new address[](users.length);\r\n        for (uint i = 0; i < users.length; i++){\r\n            ret[i] = users[i];\r\n        }\r\n    }\r\n      \r\n}",
  "sourcePath": "F:/docs/term8/CryptoCurrency/projects/project3/splitwise/truffle/contracts/Splitwise.sol",
  "compiler": {
    "name": "solc",
    "version": "0.5.16+commit.9c3226ce.Emscripten.clang"
  },
  "schemaVersion": "3.4.1",
  "updatedAt": "2021-07-11T16:38:44.080Z",
  "networkType": "ethereum",
  "devdoc": {
    "methods": {}
  },
  "userdoc": {
    "methods": {}
  }
}